{"abi":[{"type":"constructor","inputs":[],"stateMutability":"nonpayable"},{"type":"function","name":"approve","inputs":[{"name":"to","type":"address","internalType":"address"},{"name":"tokenId","type":"uint256","internalType":"uint256"}],"outputs":[],"stateMutability":"nonpayable"},{"type":"function","name":"balanceOf","inputs":[{"name":"owner","type":"address","internalType":"address"}],"outputs":[{"name":"","type":"uint256","internalType":"uint256"}],"stateMutability":"view"},{"type":"function","name":"createNFT","inputs":[{"name":"tokenURI","type":"string","internalType":"string"}],"outputs":[{"name":"","type":"uint256","internalType":"uint256"}],"stateMutability":"nonpayable"},{"type":"function","name":"getApproved","inputs":[{"name":"tokenId","type":"uint256","internalType":"uint256"}],"outputs":[{"name":"","type":"address","internalType":"address"}],"stateMutability":"view"},{"type":"function","name":"isApprovedForAll","inputs":[{"name":"owner","type":"address","internalType":"address"},{"name":"operator","type":"address","internalType":"address"}],"outputs":[{"name":"","type":"bool","internalType":"bool"}],"stateMutability":"view"},{"type":"function","name":"name","inputs":[],"outputs":[{"name":"","type":"string","internalType":"string"}],"stateMutability":"view"},{"type":"function","name":"owner","inputs":[],"outputs":[{"name":"","type":"address","internalType":"address"}],"stateMutability":"view"},{"type":"function","name":"ownerOf","inputs":[{"name":"tokenId","type":"uint256","internalType":"uint256"}],"outputs":[{"name":"","type":"address","internalType":"address"}],"stateMutability":"view"},{"type":"function","name":"renounceOwnership","inputs":[],"outputs":[],"stateMutability":"nonpayable"},{"type":"function","name":"safeTransferFrom","inputs":[{"name":"from","type":"address","internalType":"address"},{"name":"to","type":"address","internalType":"address"},{"name":"tokenId","type":"uint256","internalType":"uint256"}],"outputs":[],"stateMutability":"nonpayable"},{"type":"function","name":"safeTransferFrom","inputs":[{"name":"from","type":"address","internalType":"address"},{"name":"to","type":"address","internalType":"address"},{"name":"tokenId","type":"uint256","internalType":"uint256"},{"name":"data","type":"bytes","internalType":"bytes"}],"outputs":[],"stateMutability":"nonpayable"},{"type":"function","name":"setApprovalForAll","inputs":[{"name":"operator","type":"address","internalType":"address"},{"name":"approved","type":"bool","internalType":"bool"}],"outputs":[],"stateMutability":"nonpayable"},{"type":"function","name":"supportsInterface","inputs":[{"name":"interfaceId","type":"bytes4","internalType":"bytes4"}],"outputs":[{"name":"","type":"bool","internalType":"bool"}],"stateMutability":"view"},{"type":"function","name":"symbol","inputs":[],"outputs":[{"name":"","type":"string","internalType":"string"}],"stateMutability":"view"},{"type":"function","name":"tokenCounter","inputs":[],"outputs":[{"name":"","type":"uint256","internalType":"uint256"}],"stateMutability":"view"},{"type":"function","name":"tokenURI","inputs":[{"name":"tokenId","type":"uint256","internalType":"uint256"}],"outputs":[{"name":"","type":"string","internalType":"string"}],"stateMutability":"view"},{"type":"function","name":"transferFrom","inputs":[{"name":"from","type":"address","internalType":"address"},{"name":"to","type":"address","internalType":"address"},{"name":"tokenId","type":"uint256","internalType":"uint256"}],"outputs":[],"stateMutability":"nonpayable"},{"type":"function","name":"transferOwnership","inputs":[{"name":"newOwner","type":"address","internalType":"address"}],"outputs":[],"stateMutability":"nonpayable"},{"type":"event","name":"Approval","inputs":[{"name":"owner","type":"address","indexed":true,"internalType":"address"},{"name":"approved","type":"address","indexed":true,"internalType":"address"},{"name":"tokenId","type":"uint256","indexed":true,"internalType":"uint256"}],"anonymous":false},{"type":"event","name":"ApprovalForAll","inputs":[{"name":"owner","type":"address","indexed":true,"internalType":"address"},{"name":"operator","type":"address","indexed":true,"internalType":"address"},{"name":"approved","type":"bool","indexed":false,"internalType":"bool"}],"anonymous":false},{"type":"event","name":"BatchMetadataUpdate","inputs":[{"name":"_fromTokenId","type":"uint256","indexed":false,"internalType":"uint256"},{"name":"_toTokenId","type":"uint256","indexed":false,"internalType":"uint256"}],"anonymous":false},{"type":"event","name":"MetadataUpdate","inputs":[{"name":"_tokenId","type":"uint256","indexed":false,"internalType":"uint256"}],"anonymous":false},{"type":"event","name":"OwnershipTransferred","inputs":[{"name":"previousOwner","type":"address","indexed":true,"internalType":"address"},{"name":"newOwner","type":"address","indexed":true,"internalType":"address"}],"anonymous":false},{"type":"event","name":"Transfer","inputs":[{"name":"from","type":"address","indexed":true,"internalType":"address"},{"name":"to","type":"address","indexed":true,"internalType":"address"},{"name":"tokenId","type":"uint256","indexed":true,"internalType":"uint256"}],"anonymous":false},{"type":"error","name":"ERC721IncorrectOwner","inputs":[{"name":"sender","type":"address","internalType":"address"},{"name":"tokenId","type":"uint256","internalType":"uint256"},{"name":"owner","type":"address","internalType":"address"}]},{"type":"error","name":"ERC721InsufficientApproval","inputs":[{"name":"operator","type":"address","internalType":"address"},{"name":"tokenId","type":"uint256","internalType":"uint256"}]},{"type":"error","name":"ERC721InvalidApprover","inputs":[{"name":"approver","type":"address","internalType":"address"}]},{"type":"error","name":"ERC721InvalidOperator","inputs":[{"name":"operator","type":"address","internalType":"address"}]},{"type":"error","name":"ERC721InvalidOwner","inputs":[{"name":"owner","type":"address","internalType":"address"}]},{"type":"error","name":"ERC721InvalidReceiver","inputs":[{"name":"receiver","type":"address","internalType":"address"}]},{"type":"error","name":"ERC721InvalidSender","inputs":[{"name":"sender","type":"address","internalType":"address"}]},{"type":"error","name":"ERC721NonexistentToken","inputs":[{"name":"tokenId","type":"uint256","internalType":"uint256"}]},{"type":"error","name":"OwnableInvalidOwner","inputs":[{"name":"owner","type":"address","internalType":"address"}]},{"type":"error","name":"OwnableUnauthorizedAccount","inputs":[{"name":"account","type":"address","internalType":"address"}]}],"bytecode":{"object":"0x608060405234801561001057600080fd5b50336040518060400160405280600a815260200169111e5b985b5a58d3919560b21b815250604051806040016040528060048152602001631113919560e21b815250816000908161006191906101a4565b50600161006e82826101a4565b5050506001600160a01b03811661009f57604051631e4fbdf760e01b81526000600482015260240160405180910390fd5b6100a8816100b3565b506000600855610262565b600780546001600160a01b038381166001600160a01b0319831681179093556040519116919082907f8be0079c531659141344cd1fd0a4f28419497f9722a3daafe3b4186f6b6457e090600090a35050565b634e487b7160e01b600052604160045260246000fd5b600181811c9082168061012f57607f821691505b60208210810361014f57634e487b7160e01b600052602260045260246000fd5b50919050565b601f82111561019f57806000526020600020601f840160051c8101602085101561017c5750805b601f840160051c820191505b8181101561019c5760008155600101610188565b50505b505050565b81516001600160401b038111156101bd576101bd610105565b6101d1816101cb845461011b565b84610155565b6020601f82116001811461020557600083156101ed5750848201515b600019600385901b1c1916600184901b17845561019c565b600084815260208120601f198516915b828110156102355787850151825560209485019460019092019101610215565b50848210156102535786840151600019600387901b60f8161c191681555b50505050600190811b01905550565b611422806102716000396000f3fe608060405234801561001057600080fd5b50600436106101165760003560e01c80638da5cb5b116100a2578063c87b56dd11610071578063c87b56dd14610239578063d082e3811461024c578063da2ed03e14610255578063e985e9c514610268578063f2fde38b1461027b57600080fd5b80638da5cb5b146101fa57806395d89b411461020b578063a22cb46514610213578063b88d4fde1461022657600080fd5b806323b872dd116100e957806323b872dd1461019857806342842e0e146101ab5780636352211e146101be57806370a08231146101d1578063715018a6146101f257600080fd5b806301ffc9a71461011b57806306fdde0314610143578063081812fc14610158578063095ea7b314610183575b600080fd5b61012e610129366004610f06565b61028e565b60405190151581526020015b60405180910390f35b61014b6102b9565b60405161013a9190610f73565b61016b610166366004610f86565b61034b565b6040516001600160a01b03909116815260200161013a565b610196610191366004610fb6565b610374565b005b6101966101a6366004610fe0565b610383565b6101966101b9366004610fe0565b610413565b61016b6101cc366004610f86565b610433565b6101e46101df36600461101d565b61043e565b60405190815260200161013a565b610196610486565b6007546001600160a01b031661016b565b61014b61049a565b610196610221366004611038565b6104a9565b610196610234366004611104565b6104b4565b61014b610247366004610f86565b6104cb565b6101e460085481565b6101e4610263366004611180565b6105dc565b61012e6102763660046111c9565b61061b565b61019661028936600461101d565b610649565b60006001600160e01b03198216632483248360e11b14806102b357506102b382610687565b92915050565b6060600080546102c8906111fc565b80601f01602080910402602001604051908101604052809291908181526020018280546102f4906111fc565b80156103415780601f1061031657610100808354040283529160200191610341565b820191906000526020600020905b81548152906001019060200180831161032457829003601f168201915b5050505050905090565b6000610356826106d7565b506000828152600460205260409020546001600160a01b03166102b3565b61037f828233610710565b5050565b6001600160a01b0382166103b257604051633250574960e11b8152600060048201526024015b60405180910390fd5b60006103bf83833361071d565b9050836001600160a01b0316816001600160a01b03161461040d576040516364283d7b60e01b81526001600160a01b03808616600483015260248201849052821660448201526064016103a9565b50505050565b61042e838383604051806020016040528060008152506104b4565b505050565b60006102b3826106d7565b60006001600160a01b03821661046a576040516322718ad960e21b8152600060048201526024016103a9565b506001600160a01b031660009081526003602052604090205490565b61048e610816565b6104986000610843565b565b6060600180546102c8906111fc565b61037f338383610895565b6104bf848484610383565b61040d84848484610934565b60606104d6826106d7565b50600082815260066020526040812080546104f0906111fc565b80601f016020809104026020016040519081016040528092919081815260200182805461051c906111fc565b80156105695780601f1061053e57610100808354040283529160200191610569565b820191906000526020600020905b81548152906001019060200180831161054c57829003601f168201915b50505050509050600061058760408051602081019091526000815290565b90508051600003610599575092915050565b8151156105cb5780826040516020016105b3929190611236565b60405160208183030381529060405292505050919050565b6105d484610a5d565b949350505050565b60006105e6610816565b6008546105f33382610ad2565b6105fd8184610aec565b6008805490600061060d83611265565b90915550909150505b919050565b6001600160a01b03918216600090815260056020908152604080832093909416825291909152205460ff1690565b610651610816565b6001600160a01b03811661067b57604051631e4fbdf760e01b8152600060048201526024016103a9565b61068481610843565b50565b60006001600160e01b031982166380ac58cd60e01b14806106b857506001600160e01b03198216635b5e139f60e01b145b806102b357506301ffc9a760e01b6001600160e01b03198316146102b3565b6000818152600260205260408120546001600160a01b0316806102b357604051637e27328960e01b8152600481018490526024016103a9565b61042e8383836001610b3c565b6000828152600260205260408120546001600160a01b039081169083161561074a5761074a818486610c42565b6001600160a01b0381161561078857610767600085600080610b3c565b6001600160a01b038116600090815260036020526040902080546000190190555b6001600160a01b038516156107b7576001600160a01b0385166000908152600360205260409020805460010190555b60008481526002602052604080822080546001600160a01b0319166001600160a01b0389811691821790925591518793918516917fddf252ad1be2c89b69c2b068fc378daa952ba7f163c4a11628f55a4df523b3ef91a4949350505050565b6007546001600160a01b031633146104985760405163118cdaa760e01b81523360048201526024016103a9565b600780546001600160a01b038381166001600160a01b0319831681179093556040519116919082907f8be0079c531659141344cd1fd0a4f28419497f9722a3daafe3b4186f6b6457e090600090a35050565b6001600160a01b0382166108c757604051630b61174360e31b81526001600160a01b03831660048201526024016103a9565b6001600160a01b03838116600081815260056020908152604080832094871680845294825291829020805460ff191686151590811790915591519182527f17307eab39ab6107e8899845ad3d59bd9653f200f220920489ca2b5937696c31910160405180910390a3505050565b6001600160a01b0383163b1561040d57604051630a85bd0160e11b81526001600160a01b0384169063150b7a029061097690339088908790879060040161128c565b6020604051808303816000875af19250505080156109b1575060408051601f3d908101601f191682019092526109ae918101906112c9565b60015b610a1a573d8080156109df576040519150601f19603f3d011682016040523d82523d6000602084013e6109e4565b606091505b508051600003610a1257604051633250574960e11b81526001600160a01b03851660048201526024016103a9565b805181602001fd5b6001600160e01b03198116630a85bd0160e11b14610a5657604051633250574960e11b81526001600160a01b03851660048201526024016103a9565b5050505050565b6060610a68826106d7565b506000610a8060408051602081019091526000815290565b90506000815111610aa05760405180602001604052806000815250610acb565b80610aaa84610ca6565b604051602001610abb929190611236565b6040516020818303038152906040525b9392505050565b61037f828260405180602001604052806000815250610d39565b6000828152600660205260409020610b04828261132d565b506040518281527ff8e1a15aba9398e019f0b49df1a4fde98ee17ae345cb5f6b5e2c27f5033e8ce79060200160405180910390a15050565b8080610b5057506001600160a01b03821615155b15610c12576000610b60846106d7565b90506001600160a01b03831615801590610b8c5750826001600160a01b0316816001600160a01b031614155b8015610b9f5750610b9d818461061b565b155b15610bc85760405163a9fbf51f60e01b81526001600160a01b03841660048201526024016103a9565b8115610c105783856001600160a01b0316826001600160a01b03167f8c5be1e5ebec7d5bd14f71427d1e84f3dd0314c0f7b2291e5b200ac8c7c3b92560405160405180910390a45b505b5050600090815260046020526040902080546001600160a01b0319166001600160a01b0392909216919091179055565b610c4d838383610d50565b61042e576001600160a01b038316610c7b57604051637e27328960e01b8152600481018290526024016103a9565b60405163177e802f60e01b81526001600160a01b0383166004820152602481018290526044016103a9565b60606000610cb383610db3565b600101905060008167ffffffffffffffff811115610cd357610cd3611074565b6040519080825280601f01601f191660200182016040528015610cfd576020820181803683370190505b5090508181016020015b600019016f181899199a1a9b1b9c1cb0b131b232b360811b600a86061a8153600a8504945084610d0757509392505050565b610d438383610e8b565b61042e6000848484610934565b60006001600160a01b038316158015906105d45750826001600160a01b0316846001600160a01b03161480610d8a5750610d8a848461061b565b806105d45750506000908152600460205260409020546001600160a01b03908116911614919050565b60008072184f03e93ff9f4daa797ed6e38ed64bf6a1f0160401b8310610df25772184f03e93ff9f4daa797ed6e38ed64bf6a1f0160401b830492506040015b6d04ee2d6d415b85acef81000000008310610e1e576d04ee2d6d415b85acef8100000000830492506020015b662386f26fc100008310610e3c57662386f26fc10000830492506010015b6305f5e1008310610e54576305f5e100830492506008015b6127108310610e6857612710830492506004015b60648310610e7a576064830492506002015b600a83106102b35760010192915050565b6001600160a01b038216610eb557604051633250574960e11b8152600060048201526024016103a9565b6000610ec38383600061071d565b90506001600160a01b0381161561042e576040516339e3563760e11b8152600060048201526024016103a9565b6001600160e01b03198116811461068457600080fd5b600060208284031215610f1857600080fd5b8135610acb81610ef0565b60005b83811015610f3e578181015183820152602001610f26565b50506000910152565b60008151808452610f5f816020860160208601610f23565b601f01601f19169290920160200192915050565b602081526000610acb6020830184610f47565b600060208284031215610f9857600080fd5b5035919050565b80356001600160a01b038116811461061657600080fd5b60008060408385031215610fc957600080fd5b610fd283610f9f565b946020939093013593505050565b600080600060608486031215610ff557600080fd5b610ffe84610f9f565b925061100c60208501610f9f565b929592945050506040919091013590565b60006020828403121561102f57600080fd5b610acb82610f9f565b6000806040838503121561104b57600080fd5b61105483610f9f565b91506020830135801515811461106957600080fd5b809150509250929050565b634e487b7160e01b600052604160045260246000fd5b60008067ffffffffffffffff8411156110a5576110a5611074565b50604051601f19601f85018116603f0116810181811067ffffffffffffffff821117156110d4576110d4611074565b6040528381529050808284018510156110ec57600080fd5b83836020830137600060208583010152509392505050565b6000806000806080858703121561111a57600080fd5b61112385610f9f565b935061113160208601610f9f565b925060408501359150606085013567ffffffffffffffff81111561115457600080fd5b8501601f8101871361116557600080fd5b6111748782356020840161108a565b91505092959194509250565b60006020828403121561119257600080fd5b813567ffffffffffffffff8111156111a957600080fd5b8201601f810184136111ba57600080fd5b6105d48482356020840161108a565b600080604083850312156111dc57600080fd5b6111e583610f9f565b91506111f360208401610f9f565b90509250929050565b600181811c9082168061121057607f821691505b60208210810361123057634e487b7160e01b600052602260045260246000fd5b50919050565b60008351611248818460208801610f23565b83519083019061125c818360208801610f23565b01949350505050565b60006001820161128557634e487b7160e01b600052601160045260246000fd5b5060010190565b6001600160a01b03858116825284166020820152604081018390526080606082018190526000906112bf90830184610f47565b9695505050505050565b6000602082840312156112db57600080fd5b8151610acb81610ef0565b601f82111561042e57806000526020600020601f840160051c8101602085101561130d5750805b601f840160051c820191505b81811015610a565760008155600101611319565b815167ffffffffffffffff81111561134757611347611074565b61135b8161135584546111fc565b846112e6565b6020601f82116001811461138f57600083156113775750848201515b600019600385901b1c1916600184901b178455610a56565b600084815260208120601f198516915b828110156113bf578785015182556020948501946001909201910161139f565b50848210156113dd5786840151600019600387901b60f8161c191681555b50505050600190811b0190555056fea2646970667358221220c5eae545033442a54edf1a93ad709447a68e1183bb44eb8f97df8bbbe54b24ed64736f6c634300081a0033","linkReferences":{}},"methodIdentifiers":{"approve(address,uint256)":"095ea7b3","balanceOf(address)":"70a08231","createNFT(string)":"da2ed03e","getApproved(uint256)":"081812fc","isApprovedForAll(address,address)":"e985e9c5","name()":"06fdde03","owner()":"8da5cb5b","ownerOf(uint256)":"6352211e","renounceOwnership()":"715018a6","safeTransferFrom(address,address,uint256)":"42842e0e","safeTransferFrom(address,address,uint256,bytes)":"b88d4fde","setApprovalForAll(address,bool)":"a22cb465","supportsInterface(bytes4)":"01ffc9a7","symbol()":"95d89b41","tokenCounter()":"d082e381","tokenURI(uint256)":"c87b56dd","transferFrom(address,address,uint256)":"23b872dd","transferOwnership(address)":"f2fde38b"},"id":43}